:100000006F50E03D130000001300000013000000DB
:100010001300000013000000130000001300000094
:100020001300000013000000130000001300000084
:08003000130000007300100032
:1000380000000000000000006C04000070040000D4
:100048000000000024530000000000000000000031
:1000580026530000285300000000000000000000A4
:100068002A530000000000002C530000000000008C
:100078002E53000030530000325300003453000068
:100088003653000038530000D22F00000230000021
:100098008030000002310000425300004453000049
:1000A80046530000485300004A5300004C530000D8
:1000B8004E530000505300005253000054530000A8
:1000C80056530000585300005A5300005C53000078
:1000D8005E530000B22D000062530000645300001C
:1000E80066530000685300006A5300006C53000018
:1000F8006E530000705300007253000074530000E8
:1001080076530000785300003A3100007C53000019
:100118007E53000080530000825300008453000087
:1001280086530000885300008A5300008C53000057
:100138008E530000063900009253000094530000CB
:1001480096530000985300009A5300009C530000F7
:100158009E530000A0530000A2530000A4530000C7
:10016800A6530000A8530000AA530000AC53000097
:10017800AE530000B0530000B2530000B453000067
:10018800B6530000B8530000BA530000BC53000037
:10019800BE530000C0530000C2530000C453000007
:1001A800C6530000C8530000CA530000CC530000D7
:1001B800CE530000D0530000D2530000D4530000A7
:1001C800D6530000D8530000DA530000DC53000077
:1001D8000000000000000000000000000000000017
:1001E8000000000000000000000000000000000007
:0801F8000000000000000000FF
:100200003367B500FD530D8B79E7B7877F7F938701
:10021000F7F710419441B372F6003363F600BE92D3
:10022000B3E262006397720C6318D6065041D44162
:10023000B372F6003363F600BE92B3E262006398D5
:10024000720A631BD60410459445B372F6003363FB
:10025000F600BE92B3E262006391720A631ED60298
:100260005045D445B372F6003363F600BE92B3E254
:100270006200639A72086311D60210499449B372FE
:10028000F6003363F600BE92B3E262006393720835
:100290005105D105E30FD6F6131706019397060112
:1002A000631CF7001357060193D706013305F74087
:1002B0009375F50F91E982804183C1833305F7403F
:1002C0009375F50F91E182801377F70F93F7F70F8E
:1002D0003305F74082800346050083C60500050507
:1002E00085056313D60065FA3305D6408280110573
:1002F0009105E312D6FE014582802105A105E31C8C
:10030000D6FC014582803105B105E316D6FC0145D6
:1003100082804105C105E310D6FC014582803D4342
:100320002A876373C3029377F700BDEFADE5937639
:1003300006FF3D8ABA960CC34CC30CC74CC7410795
:10034000E36BD7FE11E28280B306C3408A069702B0
:10035000000096966780A6002307B700A306B700A3
:100360002306B700A305B7002305B700A304B70011
:100370002304B700A303B7002303B700A302B70009
:100380002302B700A301B7002301B700A300B70001
:100390002300B700828093F5F50F93968500D58DE5
:1003A00093960501D58D61B79396270097020000BB
:1003B00096968682E78086FA9680C1171D8F3E96B4
:1003C000E374C3F8A5B7397152D456D22E8AAA8ADB
:1003D0008545214506DE22DC26DA4AD84ED6EF5086
:1003E000207C854537054000EF50607DB714014003
:1003F00013040040F1490D494C00138504C0231239
:1004000081004EC64AC4EF50402C85679387078011
:100410004C00138504C02312F1004EC64AC4EF50AD
:10042000C02AB7070040231D8100376400403ECA40
:100430000C08916713050480231EF10056C8231C85
:100440004101EF50E037130504808545EF50E04847
:10045000130504808545EF50C04DF2506254D254CC
:100460004259B259225A925A216182807300203037
:1004700001A07D153335A00082808547631BF50000
:10048000411106C6EF309043B2401375F50F41019C
:100490008280054582800547631EE500AE874111D5
:1004A000B2853E8513F6F60F06C6EF40B021B24086
:1004B00041018280114582800547631EE500AE87B9
:1004C0004111B2853E8513F6F60F06C6EF40B028FF
:1004D000B240410182801145828085476310F50456
:1004E00089476389F5028D47638CF5026398A502FD
:1004F00041119387015A22C4A8473284EC47B04B7C
:10050000814606C6EF60000A08C0B2402244114589
:100510004101828083A7015F2310F600114582808C
:1005200083A7015F1CC2DDBF0145828001118545A3
:100530001305000206CEEF50A066C1472312F1005A
:1005400037150140C1473EC64C008D471305054095
:100550003EC4EF508017F24005618280011122CC29
:100560003764004026CA4AC84EC606CE52C4AA897D
:100570002E8993040480B70502002685EF50804041
:100580007DF913050480854537040300B7640040F6
:10059000EF5060360504138A0480A2855285EF501F
:1005A000C03C65DD13850480014693050002B70455
:1005B000070037640040EF50003A93842408130486
:1005C0000480A6852285EF50403A65DD370400108F
:1005D000B764004013040408138A0480A28552857E
:1005E000EF50403A65DD13850480CE85B7040700DF
:1005F00037640040EF50C0359384440813040480EE
:10060000A6852285EF50603665DDB704001037649B
:1006100000409384040893090480A6854E85EF501A
:10062000603665DDCA8513050480EF50603213051E
:1006300004808545EF50002EF2406244D244424986
:10064000B249224A014505618280411106C6F93D41
:10065000371503008545130505D4B5339305000808
:100660000145ED3D81450145D53D13054006EF505F
:100670003061930580050545D53593050005054591
:10068000F13D9305300F0945D13D9305000F094514
:10069000F135A5450D45D93599450145C13581450A
:1006A00011456D3D81452145553D930500081305D4
:1006B000B0026D359305800825454D359305C0047E
:1006C0003145693DC9453545513D814541457935FE
:1006D000814545456135E1455D454935C94561453A
:1006E000B53D814569459D3D81456D45853D9305F8
:1006F000800B130570029D359305800B1305A00236
:10070000B13D13054006EF50B057B24001454101DD
:1007100082800D899D8906058E05C98D5D453DBD8B
:10072000411122C426C206C6AA840144631794005C
:10073000B2402244924441018280A2851305E00226
:10074000313DA2851305F0020504093D1374F40F31
:10075000F1BF939715008E05CD8FC98F0A05C98FFC
:1007600093F5F70F0945DDBB050506058D45B395E6
:10077000A50093F5F50F1145D5B383473500034721
:100780002500A207D98F03471500A20703450500DE
:10079000D98FA2075D8D828093D785002300B50095
:1007A000A300F50093D70501E1812301F500A30122
:1007B000B50082802A960505A30FB5FEE31DC5FE90
:1007C0008280AA872A968507850503C5F7FF03C798
:1007D000F5FF198D6383C7007DD582805849F915CF
:1007E000791763F9E5008357A5000855B387B70269
:1007F0003E958280014582801C4185CBBE86930553
:1008000000021306A00385060387F6FF1378F70F8F
:1008100063FB0503E319C7FE03860700254713069C
:1008200006FD9375F60F6374B700FD5719A813877B
:100830002700FD576397E6000947B287E347C7FEE5
:1008400014C13E8582808147EDBF01ED814725457A
:100850009CC1828025458147F24062449CC105616C
:1008600082801C41011122CC06CE2A84E5D703C721
:1008700007006DD38356450003D76700E39CE6FC71
:1008800003C517002EC6F5360589B24561F51C4033
:10089000E1B781473387F500834607003307F5004A
:1008A00085072300D700E317F6FE828083C7B501D2
:1008B00003C7A501A207D98F0D47631AE50003C737
:1008C000550183C645012207558F4207D98F3E85C2
:1008D000828093170601C183A183A38DF500238D28
:1008E000C500034705008D476318F7004182238A3E
:1008F000C5002182A38AC5008280411122C426C27C
:100900004AC006C61309050350552A84034515003D
:100910008546CA855536854415E550541C50184CFB
:10092000A3010400B307F640814463FDE70083465A
:10093000240089476398F6000345140085463A96DB
:10094000CA859D3EB2402244268502499244410117
:1009500082805C556381B704411122C426C206C659
:10096000834735002A84AE8491EF03451400854601
:100970002686930504030536814719C18547FD5432
:1009800044D421A09D3FAA876DD1B2402244924415
:100990003E854101828081473E858280411122C48B
:1009A00006C6FD575CD5A30105002A845D37914733
:1009B0002DE10347F4228347E422ED7622075D8F81
:1009C00042074187938656A58D476314D704834712
:1009D00004031307B00E6389E700E10713F7F70F6D
:1009E0008546894763E7E602B78500000D46938593
:1009F000C5C813056406F133814701CDB7850000F2
:100A00001546938505C913052408653BB337A00037
:100A10008607B24022443E854101828001114EC6C4
:100A200052C406CE22CC26CA4AC856C25AC0054A6B
:100A30008949637EBA085C492A89894963F9F508BE
:100A4000834705000947B2842E846384E70A0D4773
:100A50006387E70C639D470713DA15001C512E9A34
:100A600093559A00BE95F535AA8935E1930A090395
:100A7000130B1A000588137AFA1F569A93F7F40F8E
:100A800009CC83470A008566C11613F7F7009397D0
:100A90004400F58FD98F93F7F70F2300FA008547AD
:100AA000A301F9008327090293559B004A85BE954F
:100AB0004D35AA8909ED137BFB1FDA9A05C4918095
:100AC00093F4F40F23809A008547A301F900F240C4
:100AD00062444E85D2444249B249224A924A024B6C
:100AE0000561828083C70A00A180BD88C19BDD8C1F
:100AF000D1BF1C51A181BE95A93DAA8969F90604FF
:100B0000930709031374E41F3E9423009400C20466
:100B1000C180A180A3009400A30149014DBF1C51D5
:100B20009D81BE953D35AA895DF10A0493070903AD
:100B30001374C41F3E94228589319204B70500F0D6
:100B40009180E98DC58D22858139F9B7854763F894
:100B5000B70C5849011122CC06CE26CA4AC84EC647
:100B60002A8463F7E502034705008946AE846306DD
:100B7000D7068D466305D708631CF70013D9150007
:100B80001C512E9993559900BE95E13311C9FD571B
:100B9000F2406244D2444249B2493E8505618280B6
:100BA0001C509309190093D599001379F91F2299C4
:100BB000BE95228503490903693B71F993F9F91F31
:100BC0004E94834704038588A207B3E7270199C0A1
:100BD00091837DBFD207D18365BF1C51A181BE9592
:100BE0008D3B55F586041304040393F4E41F269407
:100BF0008347140003470400A207D98F51BF1C513B
:100C00009D81BE95B93341F5139524001304040367
:100C10001375C51F229595369317450055BF854717
:100C20003E858280011126CA4EC652C406CE22CC11
:100C30004AC856C25AC02A8AAE89044191E903A91A
:100C4000C40063050900DC48636DF902054915A875
:100C50002685ED3D85472A8463EEA700054422855D
:100C6000F2406244D2444249B249224A924A024B7B
:100C700005618280FD576307F50ADC484E89E36011
:100C8000F5FE9C4899E30144D9BF631A3903DC4857
:100C9000130419006363F400094403250A00A285C4
:100CA00075350547E30CE5FAFD57630DF50615CDDF
:100CB000DC446376F700D84863F3E7003E894A8452
:100CC000854A7D5BDC4805046365F400E3FD2AFB8F
:100CD000094403250A00A285953D09C9E30055F999
:100CE00063026505E31024FF79BF71D87D56A285A4
:100CF00026852D330DE5639F0900D8489C48C0C464
:100D000079176373F70283C7440093E717002382C0
:100D1000F400B1B72286CE852685093379DD854773
:100D2000E31EF5F27D5425BFFD179CC8E9BF0111F4
:100D300022CC26CA06CE4AC84EC652C456C28547E1
:100D4000AE84004163FAB7065C4863F7F506AA89EA
:100D5000B28519EA054AFD5A03A50900A685FD33A7
:100D60002A8905E1014529A07D56228545397DD195
:100D7000F2406244D2444249B249224A924A056151
:100D80008280630B4503630B55030146A6852285CC
:100D9000713179FD58481C489306E7FF63FAD70084
:100DA00085071CC88347440093E717002302F4001B
:100DB000CA84E363E9FA7DB709455DBF05454DBFC8
:100DC00039714AD806DE22DC26DA4ED652D456D203
:100DD0005AD023A0050032892EC6393CAD47634E58
:100DE00005029317250013878184BA978043AA844C
:100DF000B14705C4B2451379E90F80C183470400A8
:100E000085CB03451400EFF0CFE6937715008DE313
:100E100063050900118911C1A947F2506254D254E7
:100E20004259B259225A925A025B3E852161828010
:100E300013F5F40F23000400A300A400EFF0EFE388
:100E4000137715008D4771FB63040900118969F55B
:100E500081452285A13689476313F50404081309E7
:100E6000641F130A6423A6894A85EFF01F9123A00B
:100E7000A90041099109E3192AFF13890401854951
:100E80008C400D4589C52285113E63F2A90291046B
:100E9000E31899FE114785476319E500BDBF114767
:100EA0008547E30CE5F663F4A700B547BDB7834774
:100EB000C4030347B403A207D98FC207C18713072E
:100EC0000020E394E7FE8349740483476404A20985
:100ED000B3E9F9006397090013054405EFF0FF89B2
:100EE000AA8983440404232C340105479387F4FF23
:100EF0002301940093F7F70F032AC402E367F7FA7C
:100F00000349D40393170901C1832315F400D1DFEA
:100F10009307F9FFB3F72701C9FB83472404834AEA
:100F20001404A207B3E75701939A070193DA0A4121
:100F3000139B0A01135B0B01231464019377FB00DD
:100F4000ADF7034544048347340422055D8D09E56C
:100F500013050405EFF07F828347F4030347E4039E
:100F6000A207D98FB9D3B386340313574B003E97EA
:100F70003697E36CE5F2198DB3542503E36725F347
:100F8000370600105516E36296F241665516637BEC
:100F900096100D4952978904D29718D444C8232E2D
:100FA00044011CD00D476310E90E8347B405034785
:100FB000A405A207D98FB3E7FA00C207C187E39659
:100FC00007EE1305C405EFF04FFB48D08A04938465
:100FD000F41FA580E3EB99ECFD571CC85CC4930794
:100FE00000F82302F4008D476310F90883471406C4
:100FF00003470406A207D98FC207C1870547639537
:10100000E70693051A002285EFF0BF9431ED834780
:10101000F4220347E42223020400A207D98FC20767
:101020006D77C187130757A56390E7041305040381
:10103000EFF0AFF4B7576141938727256316F502A8
:1010400013054421EFF06FF3B777416193872727AA
:10105000631CF50013058421EFF02FF208C8130577
:10106000C421EFF08FF148C4138701818357070033
:10107000230024018507C207C1832310F70023132F
:10108000F400814759BBE3020BE2B6975CD0894775
:101090006314F900860425BF3387E402858805833D
:1010A000BA9435B705695519333999000509DDB585
:1010B00001114AC80329850022CC26CA06CE4EC695
:1010C00052C423280500AA84004163110904034780
:1010D0000400894763F4E7005C5085EB8357840084
:1010E00091EB0945F2406244D2444249B249224A56
:1010F000056182805C509CCC9C4C23AA2401F5D3D2
:1011000013040403C0CC0145F1BF3E898357A400FA
:10111000FD59054A89EF8840CA850D3C2A89630E2E
:101120003501E370AAFC5C48E367F5FE5DBFCA8544
:101130002285EFF0AFEA88CCC1B7054565B741110C
:1011400022C406C626C2834735002A84CDE303475E
:1011500004008D476314F708034744008547631F65
:10116000F706930404031306002081452685EFF05B
:101170006FE4930750052307F4229307A0FAA3070F
:10118000F4220C4893072005130710049306200748
:101190002308F402A308F402930710062309F402BB
:1011A000A309E402230AD420A30AD420230BE420B9
:1011B000A30BF42013058421EFF00FDE4C4413053C
:1011C000C421EFF06FDD504C034514008546050641
:1011D00050D4A685EFF04FAE23020400034514005F
:1011E00001468145EFF06FAF3335A00021A0EFF04D
:1011F000CFF031DDB24022449244410182807971C6
:1012000022D406D626D24AD04ECE834735002A8431
:101210008DEB2285EFF08FDC1309040348D4AA89F3
:101220001306002081454A85EFF0CFD881448357CB
:10123000A40063E6F4028357A400858FB337F0005F
:1012400039A02EC6EFF06FEB8547B24579D1B25089
:10125000225492540259F2493E85456182800345E9
:101260001400854633869900CA85EFF0EFA461F536
:10127000850475BF01114EC68329050122CC26CAFB
:1012800006CE4AC852C456C25AC093890902B7074B
:1012900020002A84044163E4F900232C05001C4C3F
:1012A00011459DC313FAF91FAE8A631B0A084C4807
:1012B00085071CCC85E503D7840093D7590063E1EB
:1012C000E708232C04001145F2406244D24442490D
:1012D000B249224A924A024B0561828083D7A40018
:1012E00013D79900FD17F98FA1EF2685EFF01F8620
:1012F000054B2A896364AB000945F9B7FD576314B0
:10130000F5000545D1B7DC486365F502E38B0AFAC1
:101310004C482285EFF01F912A891D45E30609FA02
:10132000E30C69FDFD57E30EF9FCCA852685C13D36
:1013300069F9232A2401CA852685EFF02FCA08CC33
:1013400093840403D2942328340144CC0145ADBFD7
:10135000797152CC032A050026D24AD006D622D46F
:101360004ECE56CA5AC85EC662C466C2AA842E89C8
:101370009306F0021307C00583070900638CD70E9C
:10138000638AE70E23A4040003470900FD4763F5C1
:10139000E70E93890402930AF002130BC005B78B82
:1013A0000000130C0A032D46930500024E85EFF052
:1013B0006FC001470146A145130500021308E00272
:1013C000AD4813030008654E930EF009130FF003A8
:1013D000930FE0079302C00FF143B307C90083C71F
:1013E000070093061600637EF50063845701639936
:1013F000670B3306D900030606006301560B630F23
:10140000660936996304071083C604021307500E59
:101410006395E60015472380E40293060002114716
:1014200063F3F6000147A385E402268583AC04003C
:1014300041312A84631005108C4C6685EFF06FD122
:101440002A846319050EC84C83470500FDC38347F2
:10145000B50093F7F7032383F4008347B500A18B0E
:1014600091E72D46CE85EFF0CFB569C5814526853C
:101470001135C1B7050909B72254930700F8A385B0
:10148000F402B2500259F249624AD24A424BB24B7C
:10149000224C924C26859254456119B9850691BF1C
:1014A0006381070F6374B706637BF30463F8FE0080
:1014B000138407021374F40F63E38304CA968386CC
:1014C00006001304260013F6F60F6371CF0463F6CB
:1014D000CF0063DD060263EBC2029386F5FF6377FC
:1014E000D70293061700B38CE9002380FC00B38772
:1014F000D90009072380C700A2863686F9BD138666
:10150000CBCF0304060019C463948700194425A8AF
:101510000506C5BF1386F7F91376F60F6365CE008F
:10152000811793F7F70F3386E9002300F6000507CC
:10153000E9B7114483C7B4020DC411476315E40031
:10154000918B91E315442285B25022549254025952
:10155000F249624AD24A424BB24B224C924C45610C
:101560008280918BEDF383C76400C18BE1DF8C48EF
:1015700003450A0093F5F51FE295EFF02FB388C4F9
:101580001DB5E38515F92147AD4585BF011122CC75
:1015900026CA4AC806CE4EC6AA8403290500093EBB
:1015A0002A842DE19309500E8C4C4A85EFF06FBAD6
:1015B0002A8429E9DC4C83C70700639F37038C4CDE
:1015C0004A85EFF00FB92A8405E1C84C13060002E2
:1015D0008145EFF02F9EC84C2D4693850402EFF015
:1015E0004FAB8547A301F9002285F2406244D24403
:1015F0004249B24905618280F9D3854526859D39E6
:101600002A845DD19147E311F4FE1D44F1BF797145
:101610002AC6680806D62EC432C22ECEEFF0CF9D61
:10162000634D0502138781840A052A97184393871F
:101630008184124619C323000700324719C32300CF
:101640000700AA9798C3014511C601466C002800FF
:10165000EFF00FF7B250456182802D45E5BF1D7157
:10166000CEC686CEA2CCA6CACAC8D2C4D6C2DAC05A
:101670002EC6A54939C51379F603B2842A844A8651
:101680000C086800EFF0CFF3AA890DE9C247B24514
:1016900048083ECA753911E58307F10363D3070093
:1016A000194593F7C401638407161DC59147631755
:1016B000F5004808E13D1369890015C9232004009D
:1016C000AA89F64066444E85D6444649B649264A1C
:1016D000964A064B256182808347A101C58B63939F
:1016E000071493F74400639F0714A188A5C8C24755
:1016F000425A03C50700D285EFF04F9BAA84EFE062
:10170000BFE2AA851305EA00EFF00F89C25713075D
:1017100000024245A385E700C2550146EFF06F9BEA
:10172000C2570547238E0700A38E0700238F0700AB
:10173000A38F0700C247A381E7008DC00146A6859D
:10174000480803AAC702EFF08FDE2DF94245D28583
:10175000FD14EFF00FA0C247C4C72DF193778900A5
:1017600099C313690904C244425ADC542322440336
:10177000D2851CD003C50400EFF04F9308C41305B5
:10178000CA01EFE09FFF83D76400130A840248C4B4
:101790002308240104C02312F400A3080400232E0C
:1017A0000400232A04001306002081455285137982
:1017B0000902EFF02F80E30609F04444E38304F0CC
:1017C000C2470C4444C803D9A700854A7D5B26095B
:1017D000636C990401450CCCE31205EE93F7F41FFA
:1017E000E38107EE42494A85EFE05FFF2A8609451B
:1017F000E30606ECA580269650CC034519008546E5
:10180000D285EFE05FC9E30E05EA054545BDE31764
:1018100005EA8347A10113F707011DE789889DDCCD
:10182000858B8DDF1D4559BD0840B3842441EFF001
:10183000EFB1AA8563F6AA00E31C65F9054561BF0F
:10184000094551BF21459DBD11458DBD1D71A2CCDE
:10185000D2C4D6C25EDE86CEA6CACAC8CEC6DAC09A
:1018600062DC66DA6AD86ED6AE8A23A006006C08FF
:101870002A8432C6B68BEFE05FFD2A8A25E5034A4B
:10188000140163110A0683470401858B63830716DD
:101890000329C4005C4832463309F94063732601CA
:1018A0003289130C0020130B8402930CF01F7D5D12
:1018B000630A09025C4813F7F71F631D071072479C
:1018C000835DA70013D79700FD1DB3FDED0063985E
:1018D0000D048DEB0844854763EBA7028947A308F5
:1018E000F400094AF64066445285D6444649B64952
:1018F000264A964A064BF25B625CD25C425DB25D60
:10190000256182800C4C0840EFF04FA4E9B76317C3
:10191000A5018547A308F400054AE9B708CCF247BA
:101920000C4C3E853EC6EFE07FEB4DD9B389AD0050
:10193000B24763F22C0703D7A70093549900B386EC
:101940009D006374D700B304B74103C51700A68692
:101950004E86D685EFE03FB44DFD8307040163DF7B
:101960000700484CB309354163FA9900A6091306EC
:101970000020DA8533853A01EFE0BFF1A60483A7A2
:101980000B0033099940A69AA69723A0FB005C4858
:10199000BE9444C831BF504C630C360303070401A6
:1019A000635F070003C517008546DA85EFE0DFB007
:1019B0002DF18347040193F7F7072308F400F2475A
:1019C00085464E8603C51700DA85EFE0DFAC31F1BE
:1019D000232E34014C48CA8493F5F51FB307BC404D
:1019E00063F32701BE842686DA955685EFE07FEA09
:1019F00079B71D4AC5BD01116C0022CC06CE26CA9E
:101A00004AC82A84EFE07FE4AA8759E90347040122
:101A100093760704D1C66207618763530702B24712
:101A2000504C854603C5170093058402EFE0DFA8FC
:101A300085473DE58347040193F7F7072308F40042
:101A4000EFE09FAE2A890C503245EFE09FF0AA8765
:101A500021E9445083C7B400A68593E70702A38514
:101A6000F40010440840EFE0DFE64C441385C40165
:101A7000EFE09FD2CA8513856401EFE0FFD13245C4
:101A8000854723890400A3890400A301F500EFF032
:101A90000FEB03470401AA871377F7FB2308E40041
:101AA000F2406244D24442493E8505618280011180
:101AB00022CC06CE2A84813701E96C002285EFE032
:101AC000DFD819E123200400F240624405618280DE
:101AD000797126D2AE846C0022D44ECE06D64AD07E
:101AE00052CC56CA2A84EFE05FD6AA8975E58349AD
:101AF00014016393090E58446377970083470401E8
:101B0000898B91E3BA845C48232A0400B5E08144C0
:101B10005C4858446379F700034704015CC41367C9
:101B200007042308E40093F7F71FDDC7504C630553
:101B3000960A830704011309840263D00702B2479F
:101B40008546CA8503C51700EFE01F975DE183470F
:101B5000040193F7F7072308F400B2478546268669
:101B600003C51700CA85EFE01F9341E544CCADA043
:101B700032470359A7002609B9C3FD171387F4FF9D
:101B800033572703B3D62703636BD70233072041AC
:101B90000C4CF98F5CC89D8CBDD97D5A854A5C4838
:101BA000636199065C48A6975CC893F7F41FA5D3B8
:101BB0003245EFE0BFC209CDA580AA9491BF0C4485
:101BC0009DED2285EFF00F868547AA856310F5020B
:101BD0008947A308F4008949B25022544E85925493
:101BE0000259F249624AD24A45618280FD57631721
:101BF000F5008547A308F4008549F9BF08C40CCC5B
:101C000061BFCA975CC883470401B3842441898BB0
:101C100081CB2285EFF00F81AA8519E5814459B760
:101C20000840EFE0BFF2AA85E38545FDE3F2BAFA8A
:101C3000B247DC4BE3FEF5F80CCC95B759712AC6D8
:101C40006800A2D4E6C2EAC086D6368DA6D2CAD033
:101C5000CECED2CCD6CADAC8DEC6E2C46EDE2E84C0
:101C6000B28CEFE07FB9AD46634B05141317250026
:101C7000938681843697184319C32300070013798C
:101C8000F50F01E42164130484CB4A85EFE0EFFEF5
:101C9000137715008D46631407121189A946631046
:101CA000051258403ACE09EB70088D454A85EFE0A1
:101CB000DF8219C105473ACE724721669306F7FFC6
:101CC00063F4C600758F19C305473ACE834B1400E1
:101CD00085461387FBFF1377F70F63F3E600854B09
:101CE000832D840021679386FDFF63F5E60013F7DB
:101CF000FD0019C3930D0020444437070001636CB5
:101D0000970A1387F4FF658F5DE71307F01FC54639
:101D10006377A70B63850C0A101085454A85034439
:101D2000040002D0EFE06FFB854651E99377840011
:101D30003EC4014B81EF02579306F0033E8B63F7DD
:101D4000E600130717FC3AD0130BF00302561307F3
:101D5000F007B9466375C706C1669386F61F130779
:101D6000000863E4960013D7940093752400058857
:101D7000A9C563000452BA8409EFA1661358C600CE
:101D8000938686C9854403D5060001C58906637A12
:101D9000A804335496028566D51663F686040904B2
:101DA000060489491304F41F139C5D002580135C0D
:101DB0009C0005481DA3814489BFCD464DFCB6500B
:101DC000265496540659F649664AD64A464BB64BAF
:101DD000264C964C064DF25D36856561828006077D
:101DE000C9A186044DB78D463304D4028549050444
:101DF00005800D0445BFB3F8760363850800FD1622
:101E00000508050AB3D676033694E5A98946639496
:101E1000D904C166D51663F35603631A07461397B0
:101E2000140093060004E3F8E6F46396054693066F
:101E30000008BA84E3FFE6F4B94651B78566D516C3
:101E400063E15603B94625FF139714009306000873
:101E5000E3F3E6F2D5B705675517B946E36157F7DF
:101E60008549130600208145668542C0EFE09F94B6
:101E7000B78500002D46938585CC6685EFE07FA170
:101E8000024809472386EC0023870C0142081358B7
:101E9000080113588800A3850C00A3869C00A38723
:101EA0000C0123887C010D476393E900814DA388D1
:101EB000BC01C20D93DD0D01825593DD8D00238998
:101EC000BC01416763F0E50CA389BC00C205C18178
:101ED000A181238ABC006157A38AEC001307F00399
:101EE000238CEC007D57238DEC00A38C0C00A38D7C
:101EF0000C00DA851385CC01EFE01F8A0D4763984B
:101F0000E908EFE06FE2AA8513853C04EFE0DF8883
:101F1000A28513854C02EFE03F8809472386EC0237
:101F200005472388EC0219472389EC02130700F8C0
:101F30002380EC04B785000013079002A3860C02EF
:101F400023870C02A3870C02A3880C02A3890C022E
:101F50002381EC044D46938545CD13857C04EFE049
:101F60005F93930D50059307A0FA238FBC1FA38F97
:101F7000FC1E85465A86E6854A85EFE0EFD339C5D3
:101F8000854635BD13850C02EFE01F81A9B7EFE050
:101F9000AFD9AA8513857C02EFE01F8013170401D7
:101FA00041832183A38BEC00130700F82382EC020A
:101FB000B785000013079002238B8C002383EC026B
:101FC0004D46938585CE1385BC0251BF0D47639A5C
:101FD000E908854613066B00E6854A85EFE0CFCD1C
:101FE0001306002081456685EFE0CFFC130720052E
:101FF00093061004130620072380EC00A380EC0056
:10200000130710062381EC00A381DC002382CC1E81
:10201000A382CC1E2383DC1EA383EC1E9385FAFFD0
:1020200013858C1EEFE04FF709479307A0FA85460A
:1020300013067B00E6852386EC1EA3860C1E2387F1
:102040000C1EA3870C1E238FBC1FA38FFC1E4A856A
:10205000EFE08FC6854613061B00E6854A85EFE054
:10206000AFC513760DE081456685EFE0AFF4E1572B
:1020700005473EC2935A9D006397E900370B000164
:1020800093078BFF3EC202C0FD5D8D476398F91A2E
:10209000E1572380FC00BD47A380BC012381BC0124
:1020A000A381BC012382BC01A382BC012383BC01A8
:1020B000A383BC012384BC01A384BC012385BC0190
:1020C000A385FC00228D6A8B63F3AA01568BDA8606
:1020D0005286E6854A85EFE02FBEE31305EA130634
:1020E000002081456685330D6D41EFE0AFEC5A9AD3
:1020F000E31B0DFC82479386170085473EC0E3E64D
:1021000076F90D476383E900E284268463F39A003D
:102110005684A2865286E6854A85EFE0EFB9E31140
:1021200005E6818C229AF5F00D47B14A638CE900EF
:1021300082564167994A63F7E6000947914A6383EB
:10214000E900854AA247639C071202575010854553
:102150004A853AD402D6EFE04FB8E31305E2125BAA
:1021600041679546A1491307E7C333563B03636CA8
:10217000C70C1306002081456685130C4006EFE06E
:102180006FE3335C8B0313846C1C3C10938D6C1FCA
:102190009304F003130D4006930BF00363F1640DF9
:1021A00003AA070063664D016307AA0B330A8A037B
:1021B00033079A006364EB006371970A330A9B400C
:1021C000A68522853EC0EFE02FDDD28513054400B1
:1021D000EFE08FDC33D77403230E54FF33563703FD
:1021E000337737039356260093F606FCA30DC4FEFF
:1021F000A30CE4FE33F77403D2940507558F230D27
:10220000E4FE1387F4FFB356770333D63603B3F6F1
:102210003603A30FC4FE33777703A30ED4FE935681
:10222000260093F606FC0507558F230FE4FE63880E
:102230008D02824741049107B5F015A0924566854D
:10224000EFE08FD541B58609FD1693F9F90F91FEA0
:102250009309F00F39BF5A8AA1BFE3130AF6130797
:102260005005238FEC1E1307A0FAA38FEC1E8546A2
:102270000146E6854A85EFE02FA4E31305D0014629
:1022800081454A85EFE06FA5B336A0000DBEE3851A
:1022900005BA3A8811EFA16613581601938686CACB
:1022A000054703D5060001C58906E37AA8B20148AF
:1022B000B356E60241752905B708FF0F13942600AF
:1022C0001304742036952580B946E37A15AFBA8495
:1022D000014C42878D491308000233057403F2480C
:1022E000330A0B019386F8FFB308104152956295AB
:1022F000AA96B3F616018D48898EE39E19AF3698DB
:10230000369A93964400B38666413695B946E3689B
:10231000A6AAB3067403B30A8641B38A0A41B38AF4
:10232000DA408D46B3DA9A02E392D9AEC166D51689
:10233000E3E956B3B946E31407A80547E37197A844
:1023400013D71400B9B7397185451305C00206DEED
:1023500022DC26DA4AD84ED6EF3090048545216536
:1023600037140140EF30B0059307800341498D4495
:102370008A85130504402310F1004AC426C2EF30B9
:10238000C03413050440A145EF304040130504401C
:10239000C145EF30A03F1305044093050002EF3024
:1023A000E03EE1778A85130504802310F1004AC4DA
:1023B00026C2EF30803113050480A165EF30003D67
:1023C000A147E1498A85130504C02310F1004EC4DA
:1023D00026C2EF30802F8A85130504C02310210107
:1023E0004AC4EF30802E930700028A85130504C08B
:1023F0002310F1004EC426C2EF30202DB707040190
:102400003EC6B70700023ECA37440040A1473ECC53
:102410006C009D47130504C0231EF10002C8EF3075
:10242000300D130504C08545EF30D01FF2506254C3
:10243000D2544259B25921618280011126CAB7444F
:10244000004022CC4AC84EC606CE2A891304900CFE
:10245000938904C089454E85EF30B02205C9CA85ED
:10246000138504C0B7440040EF30F0201304900CF3
:10247000138904C085454A85EF30B02005C5138512
:1024800004C0EF30B01F1375F50F31A07D14137425
:10249000F40F69F00145F2406244D2444249B24926
:1024A000056182807D141374F40F69F4E5B741115E
:1024B00022C43714014026C2C145AA841305044032
:1024C00006C6EF30E02CA14513050440EF30002C88
:1024D0002685A537130504402244B2409244C145E5
:1024E00041016F30A02A411122C43714014026C295
:1024F000C145AA841305044006C6EF306029A145F2
:1025000013050440EF30802813D584003D3713F5C0
:10251000F40F2537130504402244B2409244C145CC
:1025200041016F30A026411122C43714014026C258
:10253000C145AA841305044006C6EF306025A145B5
:1025400013050440EF30C0242685C53D1305044023
:102550002244B2409244C14541016F302023011111
:1025600022CC2A841305A00206CE36C22EC632C45F
:102570005D3F1305240042054181B5372246090617
:1025800013150601418185371305B002693FB24535
:102590008D05139505014181B93792468D06139536
:1025A0000601418189376244F2401305C00205618A
:1025B0009DBF411106C622C4793337140140C1457D
:1025C000130504C0EF30C01C13054006EF30506BFC
:1025D000C145130504C0EF30601B13054006EF3002
:1025E000306A9305000213050440EF30201A1305EA
:1025F0004006EF30F06845453D3713058007EF3062
:1026000030681305100B0537154555351305C00304
:10261000793D1305C003613D1305200B293715458E
:1026200079351305C00361351305C003493513051A
:10263000300BD53D1545A53D1305C0038D3D130554
:10264000C003B5351545A5351305C0038D351305F4
:10265000C003B13D1305400BF9350D45893D130508
:10266000A003D1351545A1351305000C6D3D1305AB
:10267000200A353D0945253D130540080D3D13054C
:10268000100C55351305500C1D351305200C613DFC
:102690003545313D0145213D1305300C69351305A4
:1026A000D00831351305A00219351305400CA53D9E
:1026B0001305D008ED3B1305E00ED53B1305500C78
:1026C0009D352945ED3313056003B13D1305800C9D
:1026D000F93B1305000E813D4945D13B7145C13B96
:1026E0004145F1336145E13313053003C933130527
:1026F000C002753B130550025D3B13058002453B4C
:10270000130580026D331305700255331305F00273
:10271000793B1305C003613B0145513B0D45413BEE
:102720000D457133414561331305100EED3B4945AD
:10273000BD3B7145AD3B41459D3B61458D3B13051F
:10274000D002B533130580029D3313053002853363
:1027500013058002A93B13058002913B130560021B
:10276000B9331305F002A1331305B00389330145D2
:102770003D3B0D452D3B0D451D3B41450D3B130597
:10278000000255334D4545331305A002693B014511
:10279000393B0145293B0145193B1305F007013B36
:1027A0001305B00249330145193301450933014589
:1027B000FD391305F007E5392244B24013059002B4
:1027C000410195B301114EC656C2B689B28AFD16B3
:1027D0007D16AE962A96C2064206C182418226CA5C
:1027E0004AC85AC006CE22CC52C43A8BCE84EFF0EF
:1027F0001FD701493384344142044180631A59038D
:10280000F2406244D2444249B249224A924A024BBF
:1028100005618280131A14005A9A03450A000504C0
:102820004204EFF0DFC803451A004180EFF03FC8D3
:10283000E31294FE0509CE944209C204135909011A
:10284000C1804DBF011122CC23AEA1CC26CAAA85DE
:10285000AA840546138501AB4AC84EC606CEEFE0F2
:102860001FE023A8A11623AE01163A89BE8911CD17
:10287000378500001305C5D0EF40402D3785000097
:10288000A685130505D2EF40C01A938701ABCC474C
:1028900037850000130545D3EF40A019938681F3D7
:1028A0001306C002938501CE138501ABEFE01FFA3A
:1028B00023A8A11629C937850000130545D4EF4088
:1028C000E028378500009307C002130585D723AEA3
:1028D000F116EF40A027EFD05FD74145EFD05FE47E
:1028E0008D450145EFD0FFE285450145EFD07FE6FC
:1028F0000545EFD07FE76244F240D2444249B249F5
:1029000005616F20007F37850000130545D645BF60
:102910003735014041118545130505C006C6EF3026
:102920005010B240054723A0E18241018280373533
:10293000014041118145130505C006C6EF30700EF8
:10294000B24023A0018241018280411122C423AC04
:10295000A1CC26C24AC0AA842E890546AA85138521
:1029600081F406C6EFE0BFCF23A8A1161DC13785AD
:102970000000130545EAEF40601D2244B2400249C1
:10298000A6859244378500001305C5EB41016F40D1
:10299000400A138481F423AC01165C4489652167E5
:1029A00013850571B3C7E7022244B2409244938570
:1029B000F5C13345250323A2F138024923A601D0EE
:1029C00041017D15420541816F203002411122C431
:1029D0004AC02A89138581F426C206C6EFF02F8DDE
:1029E00023A8A116BE8419C537850000130505ED7F
:1029F000EF40C0150546CA85138581F423AC21CD6F
:102A0000EFE0FFC523A8A1161DC1378500001305FF
:102A100045EAEF40A0132244B2409244CA850249DD
:102A2000378500001305C5EB41016F40800013841A
:102A300081F423AC01165C442167B240B3C7E702BE
:102A400022449244024923A2F13823A601D0410135
:102A50008280011122CC4AC82A89138501AB26CA7B
:102A600006CE4EC6EFF0AF8423A8A11619C5378550
:102A70000000130505EDEF40600D0546CA8513857E
:102A800001AB23AE21CDEFE09FBD23A8A11623AE5D
:102A90000116BE8911CD378500001305C5D0EF4062
:102AA000E00A37850000CA85130505D2EF3070783B
:102AB000938701ABCC4737850000130545D3EF3032
:102AC0005077938681F31306C002938501CE138558
:102AD00001ABEFE0BFD723A8A11615C137850000D1
:102AE000130545D4EF408006F24062449307C002CC
:102AF00023AEF116D2444249B2490561828037853E
:102B00000000130545D6F9BF3971854513055004FA
:102B100006DE22DCEF30C0088547231AF100372596
:102B20000140930780043ECE4C088D471305058075
:102B30003ECCEF20903981451145EF20B04505444A
:102B4000B147081022D03ED422D602D2EF20B030B6
:102B500093076011680022C82316F10023070100C3
:102B6000EF20D065F2506254216182803971854531
:102B70001305500406DE22DCEF3080028947231A59
:102B8000F10037250140930780043ECE4C088D4765
:102B9000130505803ECCEF20503385451145EF20CD
:102BA000703F894705443ED00810B1473ED422D635
:102BB00002D2EF20502A930770116800230781008A
:102BC00022C82316F100EF20705FF2506254216199
:102BD0008280397185451305500406DE22DCEF2022
:102BE000307C9147231AF100372501409307800478
:102BF0003ECE4C088D47130505803ECCEF20F02CCF
:102C000089451145EF20103991473ED00544B14721
:102C100008103ED422D602D2EF20F0239307801171
:102C20002316F1006800894722C82307F100EF202E
:102C3000F058F25062542161828039718545130544
:102C4000500406DE22DC26DAEF209075A1473725F6
:102C50000140231AF1008D44930780044C081305AA
:102C600005803ECE26CCEF2050268D451145EF2025
:102C70007032A1473ED00544B14708103ED422D659
:102C800002D2EF20501D9307901168002307910096
:102C900022C82316F100EF207052F2506254D25431
:102CA00021618280411106C6EFF01FE6EFF01FECB4
:102CB000EFF03FF2B24041016FF03FF801111145D2
:102CC00006CE22CC26CA4AC84EC652C4EF20B04E09
:102CD000EF306078716513050520EF30207DB797E0
:102CE000002083A5875E37850000130545EEEF3091
:102CF0005054EFF03FFB13054006EF30607883A798
:102D0000C1813707002013070700939627003697E5
:102D10001C433785000023A2F1F4B7970020938766
:102D20004756B6979C43130545EF23AEF1F2B7899A
:102D30000000EF30B061379A002005469385C9EF57
:102D400013058A66EFE0BF8C23A0A118B547631472
:102D5000F50437850000130505F0EF30305F93066A
:102D600000201386411881451385C9EFEFE01FED60
:102D700023A0A11805469385C9EF0145EFE03F89DF
:102D800023A0A11805469385C9EF13058A66EFE0D5
:102D90001F8823A0A118EFF0DF8103A5C1F38945A7
:102DA000EFF0BFBA03A541F4EFF0DFA9EFF05FB693
:102DB00001A083A5C117797185679387A7AA26D437
:102DC000BE95138501AB23AEB11622D64AD24ED0A2
:102DD00052CEEFE0FFCF23A8A1163735014085453D
:102DE000130505C0EF30E04B83A7011799C737855E
:102DF0000000130505DBEF3070550566370900202C
:102E0000938681F31306A6AA93050901138501ABE6
:102E1000EFE0DFA323A8A11601C937850000130541
:102E200005DCEF30B052A9AA130609019304090189
:102E3000B7450040370902401305890593065055F0
:102E40009385C580EF200035130589058545EF2062
:102E5000207C83A7413803A7C1D0F917635AF71222
:102E6000371A0020938601F4216693054A5613858C
:102E700081F4EFE0BF9D23A8A11611C5378500009E
:102E8000130585DD79BF13074A569306000813061C
:102E900000088145EFF01F9303A78117A1651385F3
:102EA00081F4BA9523ACB116EFE09FC283A7C1D0DD
:102EB00023A8A116850723A6F1D019C537850000E0
:102EC000130505DBEF309048C167938707073EC0C5
:102ED00002C202C402C61384840726878147835630
:102EE00007002107B697C207C183E31A87FE15477B
:102EF000B3D7E702373501408A85130505C0231390
:102F0000F100EF30C0042687814783562700210750
:102F1000B697C207C183E31A87FE373501408A8519
:102F2000130505C02313F100EF30600C268781479D
:102F3000835647002107B697C207C183E31A87FE6D
:102F4000373501408A85130505C02313F100EF30A2
:102F5000C016814703D76400A104BA97C207C18392
:102F6000E39A84FE373501408A85130505C0231393
:102F7000F100EF30202137050200EF20A06A65DD67
:102F80003254A25412598259724A4561730020305A
:102F9000138581F4EFE0BFB123A8A11611C53785D1
:102FA0000000130585DEB5BDEFF07F9803A5C1F3E2
:102FB0008945EFF0BFA103A541F4EFF09FA9294592
:102FC000EF30004CEFF0DF94378500001305C5DFCC
:102FD00089BD03A7018285476312F702EFF03F9591
:102FE0002945EF30E04937850000130545D8EF301B
:102FF000F0350545EF20C06C73002030EFF05F9195
:10300000C5B7411122C626C4EFF07F9203A7C18144
:103010009387C1817D176343070698C39C43370795
:103020000020130707009396270036971C43378527
:10303000000023A2F1F4B797002093874756B69774
:103040009C43130505D923AEF1F2EF30303003A5D0
:10305000C1F38945EFF09F9703A541F4EFF07F9FFF
:1030600013052003EF30C041EFF09F8A0945EF20A0
:1030700020653244A2444101730020300D4771BFE6
:10308000411122C626C4EFF09F8A03A7C1818D4655
:103090009387C181050763C3E60698C39C4337073E
:1030A0000020130707009396270036971C433785A7
:1030B000000023A2F1F4B797002093874756B697F4
:1030C0009C431305C5D923AEF1F2EF30302803A598
:1030D000C1F38945EFF09F8F03A541F4EFF07F978F
:1030E00013052003EF30C039EFF09F821145EF2028
:1030F000205D3244A24441017300203023A0070028
:1031000071BF37850000130585DAEF303024EFF00A
:103110001F8203A5C1F38945EFF05F8B03A541F43E
:10312000EFF03F9313052003EF308035EFF04FFEB3
:103130002145EF20E0587300203037450040411111
:10314000930550521305054022C626C4EF30002BCC
:103150008547631AF50C03A78181A54713848181F4
:103160009384418163DDE70088C037850000130543
:1031700005E1A38E018623200400EF30301D9C4022
:1031800099EF3745004013050540EF30C025184042
:1031900093874187BA9705072380A70018C01C4072
:1031A000054781446352F7041387E7FF93864187FD
:1031B00036970305070035466318C502FD17B69715
:1031C00003860700A9466311D602378500002380D5
:1031D000070093854187130585E22300070023201C
:1031E00004008544EF30F004374500409305505209
:1031F00013050540EF30C0249DC4B78500009385BA
:1032000005E313854187EFC0BFFF1DE1378500004F
:10321000130585E3EF309013138401821C4081E78E
:10322000EFF00FEF04C03244A2444101730020309C
:10323000B7850000938545E413854187EFC05FFCA7
:103240000DE1378500001305C5E4EF30301013841D
:1032500001821C40E39997FCEFF06FED23200400FE
:10326000D9B7B7850000938585E513854187EFC001
:103270003FF925ED37850000130505E6EF30100D09
:10328000EFF0EFEA03A7C1819387C1817D17634CFB
:10329000070498C39C433707002013070700939641
:1032A000270036971C4323A2F1F4B7970020938799
:1032B0004756B6979C4337850000130505D923AEC2
:1032C000F1F2EF30B00803A5C1F38945EFF00FF03C
:1032D00003A541F4EFF0EFF713052003EF30401A98
:1032E000EFF00FE389B70D476DB7B7850000938501
:1032F000C5E613854187EFC0BFF029ED3785000093
:10330000130545E7EF309004EFF06FE203A7C181AA
:103310008D469387C181050763CBE60298C39C4322
:1033200037070020130707009396270036971C43A2
:1033300023A2F1F4B797002093874756B6979C4392
:10334000378500001305C5D923AEF1F29DBF23A038
:103350000700F1B7B7850000938505E8138541871D
:10336000EFC01FEA0DE137850000130585E8EF3057
:10337000E07DEFF0CFDB03A5C1F38945EFF00FE56A
:1033800003A541F481BF37850000130545E9EF30FF
:10339000E07B51BD378701405C4393F707F05D8DBB
:1033A00048C3828083C8418283A7818293864186F5
:1033B000231AF50483D706009842230B15051398AA
:1033C0008700A1833368F8009357870113F6F70F3E
:1033D0008987BD8BA300F500DC42418323120501E0
:1033E00013D80701135366001378F80F0D8AA30151
:1033F000E50013D787012301C500120713564800C3
:10340000518F13D687002313E5001377F60F23009F
:10341000650013537700A3046500135366401373CC
:103420001300230565001353564013731300A305BF
:10343000650013534640137313001378F8002306F6
:10344000650023040501A306050005439446938502
:103450004186637513010D436394682213D7860177
:103460009378F70F8A0713D3680093F7C73FB3E742
:10347000670037030400130303C02A06337666008F
:103480000563130303C0337666000D87D18F1D8B50
:1034900013D60601230AE5001377F60F1583230BD5
:1034A000E500135726401D8BA30BE50013D78600BC
:1034B00093F878001377F70F0606A30A1501198A07
:1034C0009358770033661601230CC500854809061A
:1034D0003396C8001CC9850733980801B388C70212
:1034E00023280505B327F6021356F841B3870703CF
:1034F00033061603B2973386080333B8080330C582
:10350000C2977CC593576740858BA30CF5000607CF
:1035100093F7F60F93D677001377E707558F230DB0
:10352000E500D84593F7F707A30DF50093578701FA
:1035300093D67700230ED50093D657408D8AA30EDD
:10354000D50093D627409D8A230FD50093560701B7
:1035500013F6F60F8A0793556600B18BCD8F9586CB
:10356000A30FF500858A935787002300D502058AAB
:1035700093F6F70F2301C50213D67600A301C50207
:1035800013D66740058A2302C50213D65740058A21
:10359000A302C50213D64740058A2303C50213863A
:1035A00041858D8A2304D502144289878D8BA3031C
:1035B000F5021377F70F93D786012306F5020583EB
:1035C00093D70601A304E50293F7F70F13D78600FC
:1035D0001377F70FA207D98F2317F5025C42E20693
:1035E000416813D787001377F70F558F93D687015C
:1035F000C206558F93D607017D18A206B3F60601C1
:10360000558F144618D9230AF502584693D78601D8
:10361000A30AF5021396860093D7060133780601B4
:10362000E20713568701B3E70701D18FA2063706D9
:10363000FF00F18ED58F0346C5031CDD93570701AC
:1036400093F6F70F9182D18E230ED502856693866D
:1036500006F0A207F58F9356870093F6F60F85457F
:10366000D58F1377F70F2305B502231FF502A300AB
:10367000050205832300E504A300B504014582800B
:103680000946E391C8E813D7860113D606011376DD
:10369000F60F2207518FC20737063F00F18FD98FEF
:1036A0001CC9850713D6D700CE0713D786003CC5A3
:1036B000930700201377F70F70C53CC9A1B54111DE
:1036C00022C426C206C64164FD547D14631C9400C6
:1036D0001305F05FEF2040610145B240224492445F
:1036E0004101828013050008EF20205F79DD6DF035
:1036F0000D45E5B7411106C622C441678147FD5615
:10370000378601407D17631ED70013F7470019EF76
:1037100093F70704014499CF13050004EF20C05C20
:1037200011A85C5A93F55704F1DD65F31145EF20BC
:10373000A05B0D442285B2402244410182804111A8
:1037400022C426C206C6AA84378401405C5893F777
:103750005704EDDF1145EF20405811C91145EF2006
:10376000A0580D45B2402244924441018280054553
:10377000EF20A05611C50545EF2000570545DDB7E0
:103780001C484145E39097FE9307F05F1CDC4848D6
:10379000B7E7FFFDA1077D8DF1B7411106C69387FD
:1037A00081389D46D4C39306000423A4A13894C74E
:1037B000138581389306004023A6070094CBEF20A1
:1037C000004CB2401D4541016FF07FF7411122C40A
:1037D000378401405C5806C693F70710B5C703C786
:1037E000C182854713840183631DF7049387813861
:1037F0003147D8C31307000498C723A4013813071F
:1038000000401385813823A6070098CBEF2020477E
:103810003145EFF0DFF208C0B7870140985FD176FD
:10382000938656CC1367071098DFD85F758FD8DF63
:103830000547A386E1821C40B24022443E854101F7
:10384000828023200400C9BF0945EF20004919CD1B
:103850000945EF2060495C5C5177130757CCF98F1D
:103860005CDC094723A8E1828947F9B72145EF20AD
:10387000C04619CD2145EF2020475C5C51771307E6
:1038800057CCF98F5CDC114723A8E18291476DB7D3
:1038900013050002EF20604405C113050002EF206C
:1038A000A0445C5C5177130757CCF98F5CDC194757
:1038B00023A8E182994749B74145EF20004219CD3D
:1038C0004145EF2060425C5C5177130757CCF98F7C
:1038D0005CDC154723A8E1829547B9BF130500209A
:1038E000EF20A03F814729D913050020EF20C03FDA
:1038F0005C5C5177130757CCF98F5CDC1D4723A81C
:10390000E1829D4715BFEFF07FEC7300203041113D
:1039100006C6378701405C5B93F75704EDDF11451E
:10392000EF20A03B01C91145EF20003C0D45B240FE
:10393000410182801305F05FEF20003B0145C5BFC8
:1039400079719387815F06D622D426D24AD04ECE93
:1039500052CC56CA5AC85EC662C4130720FB23ACB9
:10396000015E1385815F238AE70023A2070023A459
:10397000070023A6070023A80700EF2020290D45F4
:10398000EF20E02C0545EF20202B9309A0041384A1
:103990008138130A0040CA84228523A401382322D7
:1039A0000400232404002326040023284401EF20DC
:1039B000002DEFF0DFD015C1FD1993F9F90FE39D4C
:1039C00009FCB250225492540259F249624AD24A36
:1039D000424BB24B224C456182809307A01A23A42C
:1039E000F138A1475CC093070004138581381CC4DB
:1039F000930700401CC823260400EF204028EFF066
:103A00007FCF014911E505472382E1823709004054
:103A1000930770035CC0930700041CC413858138AE
:103A2000930700401CC823A4013823260400EF207C
:103A3000002513057003EFF09FD0814941E9370A53
:103A40001080336A49014169930B7003930A0004A3
:103A5000130B0040130C90027D191385813823A4A9
:103A6000013823227401232454012326040023282F
:103A70006401EF20C02013057003EFF05FCC31F13B
:103A80001385813823A4413923228401232454013E
:103A90002326040023286401EF20601EEFF03FE797
:103AA000E31105F2B7870140DC4B850963C60700C7
:103AB000E39529FB6D4531B7E38E29FF1397170076
:103AC000E35107F009472382E182E5BD4169378A66
:103AD000FF80854A130B0004930B0040378C014094
:103AE0007D191385813823A44139232254012324CD
:103AF00064012326040023287401EF204018EFF00E
:103B00001FE1E31005EC83274C01850963C507001D
:103B1000E39929FD45B7E38F29F90D476DB74111A9
:103B200006C622C441678147FD56378601407D178E
:103B30006312D702918B85E70545EF20001A0144F7
:103B400009C50545EF20401A05441305F05FEF2035
:103B5000A01911A85C5A93F55704F1D961FF1145DA
:103B6000EF2080180D442285B2402244410182801A
:103B7000411122C426C24AC006C62A89AE843784AF
:103B800001405C5893F75704EDDF1145EF20E01436
:103B900019C91145EF2040150D45B2402244924409
:103BA0000249410182800545EF20201311C50545DA
:103BB000EF2080130545D5B71C4863842701414594
:103BC000E9BF1305F05FEF2020125C4839677D8F55
:103BD00011E7C1832390F4000145C1B71397270172
:103BE0004D45E34C07FA13971701E34A07FC139777
:103BF00007010145E35307FA3D4545B701118547E4
:103C00002317F10006CE22CCEF2080059307500247
:103C10006300050E03C74182914713844182630408
:103C2000F704938781380947D8C31307000C98C756
:103C300023A40138130700401385813823A6070009
:103C400098CBEF20C003EFF09FEDAA8755E13787AF
:103C50000140544B9387418594C3144FD4C3544FB0
:103C600094C71853D8C78347040009476379F704FA
:103C700019476386E704034704008D47631AF70278
:103C80008357E100C20723A4F13893878138D8C352
:103C90001307000498C7138581381307004023A633
:103CA000070098CBEF10B07DEFF07FE7AA8729E1FE
:103CB0000347040091476312F704814715A89387CF
:103CC00081380D47D8C31307000498C723A40138CF
:103CD000130700401385813823A6070098CBEF1007
:103CE000107A9305E1000D45EFF09FE8AA8741D5D2
:103CF000F24062443E85056182808357E10023A43F
:103D0000F182C20723A4F138254793878138D8C3AD
:103D10001307000C98C7138581381307004023A6AA
:103D2000070098CBEF10B075EFF07FDFAA8769F13D
:103D3000B7860140D04A1387418610C3904E50C3C6
:103D4000D04E10C7945254C765B783A78182011122
:103D500026CAC207AA8406CE22CC23A4F13835474E
:103D600093878138D8C31307000498C702C4130788
:103D700000401385813898CB23A6070002C6EF10B8
:103D80001070B7870140DC5B378701403EC6B24701
:103D900093F7570491CF0545EF10307409CD0545D1
:103DA000EF1090740545F2406244D2440561828070
:103DB0005C5B3EC6E9BF1145EF10307211C511457D
:103DC000EF1090720D45C5B7378401401848B547CC
:103DD0004145E31AF7FC1305F05FEF10F0705C4803
:103DE00001453EC4A247A583BD8B2380F40065BF77
:103DF00001114AC806CE22CC26CA4EC652C456C2AB
:103E00005AC013848138C14713858138214B930AE6
:103E10000004130A0040AE895CC023A46139232446
:103E200054012326040023284401EF105065414526
:103E3000EFF0FF90AA846319050C83A78182138594
:103E4000813823245401C20723A4F1389307700357
:103E50005CC02326040023284401EF1050621305A0
:103E60007003EFF0DF8DAA8445E1FD5723A8F160D0
:103E7000130700039387016198C70947D8C71385C3
:103E800001610547D8CB23A2670123A80700EF10E3
:103E9000306193073003138581385CC023A4013857
:103EA000232454012326040023284401EF10305D0D
:103EB00013053003EFF0BF88AA8439E53789014044
:103EC000032449031374A46239E837052000EF1076
:103ED000D0607DD5EF10305F2A89378A0140832773
:103EE0004A0393F7A76289EB37052000EF10F05ED5
:103EF0007DD5EF10505D2A842145EF10105E1DC165
:103F00002145EF10705E9144F2406244268542499B
:103F1000D244B249224A924A024B0561828001444E
:103F20000149D9BF0945EF10505B11C50945EF1094
:103F3000B05B8944D1BF13050002EF10105A19C5B8
:103F400013050002EF10505A99447DBF130500205D
:103F5000EF10B05819C513050020EF10F0589D441C
:103F600065B71305F05FEF103058935789011317A9
:103F70008901931689003706FF005D8FF18E558FFA
:103F8000C166938606F0135989003379D9003369E5
:103F900027019317840113578401D98F13178400C5
:103FA000718F2180D98F758C5D8C23A2290123A06C
:103FB000890099BF79714AD006D622D426D24ECE36
:103FC00052CC02C402C6094911E12A89B7870140CF
:103FD000DC4B394513976700634E070613848182D3
:103FE000035504002C00EFF0BFE02DE5B2471305A8
:103FF00050021397D700635F07041C401384813875
:10400000C20723A4F1381385813893077003130A7C
:104010000004930900405CC02324440123260400CB
:1040200023283401EF10B04513057003EFF02FF192
:1040300015E199471385813823A421395CC02324D5
:1040400044012326040023283401EF10504319456E
:10405000EFF0EFEEB250225492540259F249624A04
:104060004561828083C741820D476386E704411121
:1040700022C406C609472A840145636AF7028547B8
:104080001305700263E587021375F40FEFF09FF2DA
:1040900019EDB7870140D843F9769386F67F758F7F
:1040A000D8C3D8432E04598CC0C3D843D8C3B24018
:1040B0002244410182801305700282807971854516
:1040C0001305000306D622D426D2EF10702D8545A5
:1040D00013052040EF10F02A8967938707F00D44FD
:1040E000E1444C0837150140231AF10022CC26CEBA
:1040F000EF10A05D22CC3714014091474C08130506
:104100000440231AF10026CEEF10205C930700082C
:104110004C0813050440231AF100930780043ECE97
:10412000EF10A05AEF10902B930710042316F10004
:10413000680085473EC823070100EF103008EFF004
:104140003F8039E1EFF09FAB21E11385015AEFF099
:104150006FA51DE91384015A035544054205EFF08C
:10416000CFE31DE10545EFF0FFEF19ED03C7615FF8
:104170008547194563F3E7000545EFF0AFA1054713
:10418000A382E182014531A003C741828D47E30F3D
:10419000F7FCB25022549254456182808147054712
:1041A0006314E5003E8582808507058193F7F70F4C
:1041B000C5BF5D71A6C2CAC0AE842A8985450945BE
:1041C00086C6A2C432C637040240EF10901B130506
:1041D0004444EF10A029130544448145EF104043A7
:1041E000B7870140938707083ECA930700083ED46B
:1041F0009307002032463ED68567938707803ED8D6
:104200004C0889671305444489804ACC32CE26D0B5
:104210003EDC02D202DA02DEEF10003C1305444419
:104220008145EF10E03EB640264496440649616160
:1042300082805D7186C6A2C4A6C2CAC04EDE52DCB0
:1042400056DA5AD85ED662D466D26AD06ECE1DE1F6
:10425000130460022285B640264496440649F2596A
:10426000625AD25A425BB25B225C925C025DF24DB2
:1042700061618280B787014023A6070203C741829C
:104280008947AA842E8B368A6319F7005E0613DBF2
:104290009500336B6601130A002013890161FD5DEF
:1042A000054C13850161232409002322090023A85A
:1042B000B161232A89012326090023280900B78B2D
:1042C0000140EF10F01D03A74B013944931767001D
:1042D000E3C207F81307FAFF13160701418293069A
:1042E000F07FE3E7C6F6337747013DF35285EFF001
:1042F000FFEA93898138C146930700402AC6130D0F
:1043000000041385813823A2D90023A8F90023A42F
:10431000413923A4A90123A60900EF1050164145F5
:10432000EFF0EFC12A841DF5324713850161232286
:10433000490112072324E90009472326E90023A89D
:10434000B161232A890123280900EF107015C547A0
:1043500023A2F900138581389307004023A8F900B0
:1043600023A4613923A4A90123A60900EF10301169
:104370004545EFF0CFBC2A84E31E05EC83C751828C
:10438000C5CFE39987ED0146D2852685EFF07FE220
:104390009387018323A00700238601829387D1821C
:1043A0002380070083A7CB0305451389D18293E7B8
:1043B000A73223AEFB02EF10500B370502408545B4
:1043C00013054544EF10C0247D57938701833706BA
:1043D0000240832606409395260163C2050C83465E
:1043E000090093F6F60FC5EE9443D5EA31C37D1765
:1043F000CDB72165EF10700E15C9A687938404020E
:1044000003A70908910723AEE7FEE39BF4FE130917
:10441000FAFF83A7490393F7A762E1DF2145EF1075
:10442000D00B0DC12145EF10300C19A06314090009
:1044300011440DB57D19F1BF7D59B7890140370A87
:104440008000C1BF0945EF10500911C50945EF10A3
:10445000B009094401B513050002EF10100819C591
:1044600013050002EF1050081944EDB313050020A6
:10447000EF10B00619C913050020EF10F0061D4417
:10448000D1BBEF10500488C0910437052000EF1015
:10449000D00465F91305F05FEF10100565BB49DB2B
:1044A0009843E30907DA804375B35D71CAC0A6C2B9
:1044B00056DA6ECEB787014086C6A2C44EDE52DC05
:1044C0005AD85ED662D466D26AD02AC023AEA1582A
:1044D00023A60702B68483C64182AE8D93854182AE
:1044E00089472EC26399F6005E0693DD9D00B36D89
:1044F000B60193040020938C01617D5D854913858D
:1045000001613AC423A40C0023A20C0023A8A161DA
:1045100023AA3C0123A60C0023A80C00B78A014063
:10452000EF10007883A64A0139449397660063CE62
:1045300007009386F4FF1395060141811306F07F6F
:1045400022476374A602130460022285B640264403
:1045500096440649F259625AD25A425BB25B225CD7
:10456000925C025DF24D616182803AC6E58EE1FEA9
:104570002685EFF0BFC2938B81382AC4414593074B
:1045800000041307004023A2AB001385813823A445
:10459000FB0023A8EB0023A4913823A60B00EF1007
:1045A000006E4145EFF0AF992A84138A813851FD9E
:1045B0003247E3FCE9F8B384E40237030002E3F492
:1045C00064F8A248094713850161920823A41C01DD
:1045D00023A6EC0023A29C0023A8A16123AA3C01EE
:1045E00023A80C00EF10C06BC94723A2FB001307E0
:1045F0000040930700041385813823A4B13923A414
:10460000FB0023A60B0023A8EB00EF1040674945F1
:10461000EFF0EF926319051803CC5182630A0C0A7C
:10462000E3153CF30245A6850146EFF09FB893875A
:10463000018323A00700238681839387D18223806F
:10464000070083A7CA0337050240854593E7A732D1
:1046500023AEFA0283A7CA02130545441389D18207
:1046600093E7870023A6FA02EF00907A7D5793879D
:104670000183B706024003A606409315260163C7CF
:10468000051039C37D17C5BF2165EF10006505CD45
:1046900083A7C1591387070283A60408910723AE95
:1046A000D7FEE39BE7FE23AEF1581384F9FFDC58F5
:1046B00093F7A732F1DB2145EF10206205C12145B8
:1046C000EF10806211A019E0114441B57D14C5B707
:1046D0007D54B7840140B7098000D1BF0945EF1070
:1046E000C05F11C50945EF1020600944B9BD13052D
:1046F0000002EF10805E19C513050002EF10C05EC6
:104700001944A1B513050020EF10205D0DC113055C
:104710000020EF10605D1D440DBD03A4C159EF10D2
:10472000805A83A7C15908C0910723AEF1583705B5
:104730002000EF10805A75F113050010EF10E059BA
:1047400019E51305F05FEF10205A0144FDBB9247B5
:1047500003C707008947E3E6E7FEB1472322FA00D3
:1047600093070004138581382324FA00930700403F
:1047700023A401382328FA0023260A00EF10205032
:104780003145EFE0DFFB2A844DDDC1B315DF034780
:1047900009001377F70F19E3984375DB9843E30695
:1047A00007DA80435DB32A844DB31D7186CEA2CC57
:1047B000A6CACAC8CEC6D2C4D6C2DAC05EDE62DC21
:1047C00066DA6AD86ED6A30F010015E11305600200
:1047D000F6406644D6444649B649264A964A064BB0
:1047E000F25B625CD25C425DB25D2561828032C662
:1047F000B784014023A604027D579387016123A853
:10480000E1602A84054713850161D8CB23A4070002
:1048100023A2070023A6070023A807002E8B368AB1
:10482000EF100048DC48938A01613945139767000F
:10483000E34007FA03C74182894732466311F70A0A
:104840005E06135B9B00336B6601930900204E8567
:10485000EFF0DF94938781384147AA8C930D0004D1
:1048600013858138130C0040D8C323A4B70123A6B5
:10487000070023A8870123A43139EF1040404145A8
:10488000EFE0FFEB138D813821F583A7818213853B
:10489000813823288D01C20723A4F138B54723228C
:1048A000FD002324BD0123260D00EF10403D3545BA
:1048B000EFE0FFE8138C8182E31C05F0B78701402D
:1048C000DC4BFD5BB54D93F707101307000493060F
:1048D0000040A5E363940B0213059002D5BD930736
:1048E000FAFF93960701C1821307F07FE360D7EECA
:1048F000B3F74701E39C07ECD28991BF83270C00F3
:10490000138581382322BD01C20723A4F138232453
:10491000ED0023260D002328DD00EF10403635453D
:10492000FD1BEFE0DFE1E31505EA378601405C4A55
:1049300059BF13059002E38D0BE8E1472322FD00E8
:10494000930700042324FD0013858138930700405A
:1049500023A4613923260D002328FD00EF10203207
:104960006145EFE0DFDDE31505E6FD579384C18285
:10497000920C054B1385016123A8F160238004008C
:1049800023A49A0123A23A0123AA6A0123A60A00BA
:1049900023A80A00EF10C03083C75182638F070C31
:1049A0006396671322854146CE85EFF09F80238072
:1049B00004009387018323A007009387D18223807B
:1049C0000700B7870140D85F370502408545136768
:1049D000A731D8DFD857130545449384D182136794
:1049E0008700D8D7EF00D042FD5693870183370761
:1049F0000240032607409315260163C20510639EFB
:104A0000060EEFF0AFEBB5A01165EF10002D2DC134
:104A100033072A416362EB04935727000D8B11C3C0
:104A2000850793942700B30B9400631274032699AF
:104A30009384FAFF83A7490393F7A761F1D7214530
:104A4000EF10A02939C12145EF10002A1DA0084010
:104A50001104EF10E027D1BF9304040208401104B1
:104A6000EF100027E39C84FE268413090902C9B7CE
:104A700099E01145B1BBFD1475BF0149FD54B789DB
:104A800001407D4BB70A004075B70945EF10E0249F
:104A900011C50945EF10402509451DBB4145EF10E3
:104AA000C02311C54145EF102024154515B313054A
:104AB0000020EF10802219C513050020EF10C0223E
:104AC0001D4539B39307F05F23ACF9021305F05F7E
:104AD000EF1080211305F101EFF02FA70544E31932
:104AE00005CE8347F101E91793F7F70FE362F4CEA0
:104AF0001305F101EFF06FA5DDB7FD16DDBD7D57A4
:104B0000E38106F083C6040093F6F60F91E6944322
:104B100081E625D37D17FDB729DF984345DB884320
:104B200045B91D7186CEA2CCA6CACAC8CEC6D2C40B
:104B3000D6C2DAC05EDE62DC66DA6AD86ED6A30F51
:104B4000010015E113056002F6406644D64446496B
:104B5000B649264A964A064BF25B625CD25C425DDD
:104B6000B25D2561828032C637840140232604026B
:104B7000BA897D579387016123A8E1602A89054797
:104B800013850161D8CB23A4070023A2070023A625
:104B9000070023A807002E8CB68CEF1060105C482D
:104BA000938B0161394513976700E34F07F803C7FB
:104BB00041828947938A418232466319F70E5E0625
:104BC000135C9C00336C8601130A00205285EFF0C1
:104BD000EFDC9387813841472AC6130D0004138503
:104BE0008138930D0040D8C323A4A70123A6070052
:104BF00023A8B70123A44139EF1060084145EFE035
:104C00001FB41384813829F1854763F3371D330AB4
:104C10003A03B7070002E377FAF283C60A0089472E
:104C200063F5D70AE5475CC0930700041CC41385ED
:104C300081389307004023A48139232604001CC82F
:104C4000EF10E0036545EFE09FAFE31F05EEB247CD
:104C500013850161054C139D4700FD5723A8F160A2
:104C600023A4AB0123A24B0123AA8B0123A60B0093
:104C700023A80B00EF10C00203CB5182631B0B1A59
:104C8000B3893C03FD57B78B0140FD4C370C004006
:104C900003A74B031377A73149C72145EF10E00362
:104CA0006302050E2145EF102004C9A89387FCFF7D
:104CB00093960701C1821307F07FE365D7E8B3F746
:104CC0009701E39107E8668A11B783A7818213856C
:104CD00081382324A401C20723A4F1389307700369
:104CE0005CC0232604002328B401EF00507913058B
:104CF0007003EFE0DFA4E31905E4DD471385813895
:104D000023A431395CC02324A401232604002328D2
:104D1000B401EF00D0765D45EFE07FA2E30405F03B
:104D200025B503A74B039316170163D806043387F1
:104D3000694163E7EC02935727000D8B11C3850788
:104D4000139A2700330D49016316A901529B93075B
:104D5000FCFF3DBF032509001109EF007077EDB797
:104D6000130A0902032509001109EF007076E31BFD
:104D70002AFF5289130B0B02D9BF99E31145E9B3FE
:104D8000FD1739B70945EF00507511C50945EF000A
:104D9000B075094555BB4145EF00307411C541451B
:104DA000EF00907415454DB313050020EF00F0722D
:104DB00019C513050020EF0030731D4571B31305AD
:104DC0000010EF00907105ED1305F05FEF00D0715A
:104DD0001305F05FEF0050711305F101EFE0FFF6EE
:104DE0000544E31305D68347F101E91793F7F70F5D
:104DF000E36CF4D41305F101EFE03FF5DDB703C731
:104E00000A008947E3E2E7FCB1475CC0930700046E
:104E10001CC4138581389307004023A4013823263E
:104E200004001CC8EF00B0653145EFE05F9149DD3B
:104E300021BBE31F8BF94146D2854A85EFF06FB75E
:104E40009387018323A00700238661839387D18200
:104E500023800700B7870140D85F370502408545AA
:104E60001367A731D8DFD857130545449384D182FF
:104E700013678700D8D7EF00A079FD569387018389
:104E800037070240032607409315260163C8050033
:104E900081E6EFF0AFA2DDB5FD16EDB77D57F5DA8F
:104EA00083C6040093F6F60F99E6944389E6E30778
:104EB00007EC7D17F5B7E30307EC9843E30A07F027
:104EC000884359B1011106CE22CC26CA4AC84EC623
:104ED00052C456C293773500328713D67501A605A2
:104EE000B1CF2607AA892E84B2843309E500014A8E
:104EF000639C2901F24062445285D2444249B2493E
:104F0000224A924A05618280A28526869306002065
:104F10001385C139EFF0EFB1137AF50F13060020B6
:104F20004E859385C139EF1070259307042033B760
:104F30008700938909203E84BA945DBF8547930614
:104F400000206317F700EFF0CFAE137AF50F5DB7CF
:104F5000EFF0AFD5DDBF011106CE22CC26CA4AC87C
:104F60004EC652C493773500328713D67501A60515
:104F7000A1CF2607AA893309E5002E84B284014512
:104F8000639A2901F2406244D2444249B249224A1A
:104F900005618280CE85130600201385C139EF108C
:104FA000F01DA2852686930600201385C139EFF0F7
:104FB000CFFF9307042033B787001375F50F93894C
:104FC00009203E84BA946DBF85479306002063177D
:104FD000F700EFF08FFD1375F50F6DB7EFF07FB4AD
:104FE000DDBFB71702409843B706FFF841111367BA
:104FF000170098C3D84337060200758FD8C398436B
:10500000B706F7FEFD16758F98C39843B706FCFFE9
:10501000FD16758F98C3D843B70681FFFD16758FAF
:10502000D8C337079F0098C702C402C69843C16619
:10503000558F98C38567B7160240938707FA984241
:10504000718F3AC6224705073AC4324701E7224723
:10505000E317F7FEB71702409C431397E700635826
:10506000070885473EC6324785476310F708B727CC
:1050700002409843B706C1FFFD161367070198C3A6
:105080009843719B98C398431367270098C3B71739
:105090000240D843D8C3D843D8C3D8431367074086
:1050A000D8C3D843758FD8C3D843B7061D00558FD2
:1050B000D8C3371702401C43B7060001D58F1CC365
:1050C000B7170240984393166700E3DD06FED84306
:1050D000B7160240719BD8C3D84313672700D8C3C3
:1050E0002147DC42B18BE39EE7FE4101828002C68C
:1050F0009DBF79718545116506D622D426D24AD046
:10510000EF00F02B85456545EF00902937190140E8
:10511000E1440D448D674C00130509C02312F100D2
:1051200026C622C45D23E1774C00130509C0231273
:10513000F10026C622C4512B930700044C003715FA
:1051400001402312F10026C622C441239307002008
:105150003EC8B7070002374400403ECA89679387BC
:1051600007F40C08130504803ECC231E0100EF0059
:10517000D03D1305048005468945EF00704E1305A8
:1051800004808545EF00F04BB250225492540259EE
:10519000456182805D71A2C4A6C22A84AE840545A1
:1051A000854586C632C636C4EF00B01D22857D2CEB
:1051B000C1473ECE930700083246A2463ED493072D
:1051C00000103ED6930700403ED84C0889672285E0
:1051D00026CA32CC36D002D202DA3EDC02DEED2E16
:1051E000B64026449644616182805D71A6C2AA845D
:1051F0000565A2C4130505802E84854586C6CAC0F0
:105200004EDE52DC02C402C62318010002C002C2F4
:10521000EF0010192C0037050040231691002314CD
:105220008100231701002315010023080100EF006E
:105230001046930790322310F1008D472301F100AF
:105240000A858547373401403EC28D2F0546130538
:1052500004C08545EF10000037190140614A8D49AF
:10526000930700204C0813050980231AF10052CE41
:105270004ECC231B01009129930700104C08130505
:105280000980231AF10052CE4ECC812193070040B1
:105290004C0813050980231AF10052CE4ECC35215B
:1052A0008567938707804C0813050980231AF1004E
:1052B00052CE4ECC1929C1679387070702D20C1032
:1052C000130504C086043ED02313910202D402D6F3
:1052D000EF00F0470C10130504C0EF0050510C1004
:1052E000130504C0EF00705D0C10130504C0EF003F
:1052F0007069130504C08545EF007074130504C080
:105300008145EF007078130504C08545EF00F07506
:10531000B640264496440649F259625A6161828039
:1053200001A001A001A001A001A001A001A001A075
:1053300001A001A001A001A001A001A001A001A065
:1053400001A001A001A001A001A001A001A001A055
:1053500001A001A001A001A001A001A001A001A045
:1053600001A001A001A001A001A001A001A001A035
:1053700001A001A001A001A001A001A001A001A025
:1053800001A001A001A001A001A001A001A001A015
:1053900001A001A001A001A001A001A001A001A005
:1053A00001A001A001A001A001A001A001A001A0F5
:1053B00001A001A001A001A001A001A001A001A0E5
:1053C00001A001A001A001A001A001A001A001A0D5
:1053D00001A001A001A001A001A001A001A0739063
:1053E000123497510020938161A017B1012013015D
:1053F00061C117350000130565D197B5FF1F93856F
:1054000065C01386018163FAC5008322050023A0CD
:10541000550011059105E3EAC5FE138501819385C9
:10542000C1626377B500232005001105E36DB5FE69
:10543000FD42739002BCFD4273904280B76200004F
:105440009382820873A0023097B2FFFF938202BF5B
:1054500093E2320073905230EFF0BFB897E2FFFF53
:105460009382028673901234730020301C4141678E
:105470007917F98F1CC1232005002322050023245E
:105480000500B7070240232605001387870063172E
:10549000E500D8431367F700D8C382801387C7019C
:1054A0006316E500D8431367070FFDB7138707039B
:1054B0006318E500D8438566938606F0558FE9BFEB
:1054C000138747046315E500D843BD66C5BF13873E
:1054D00087056316E500D843B7060F00C5B71387E5
:1054E000C7066316E500D843B706F000C1BF1387AF
:1054F00007086316E500D843B706000FC1B7138746
:1055000087406319E50003A747401367F70023A20C
:10551000E74082801387C7416317E50003A7474030
:105520001367070FEDB793870743631BF500B707B2
:10553000024003A747408566938606F0558FC1BF9A
:10554000B7070240138747446316E50003A74740A7
:10555000BD66EDB7138787456317E50003A747408E
:10556000B7060F00E1BF1387C7466317E50003A71F
:105570004740B706F000D9B7138707486317E5001F
:1055800003A74740B706000F55BF138707496319A4
:10559000E50003A7474D1367F70023AAE74C828075
:1055A0001387074A6317E50003A7474D1367070FE3
:1055B000EDB71387074B6319E50003A7474D8566D1
:1055C000938606F0558FD1BF1387074CE319E5FC8E
:1055D00003A7474DBD66FDB71C4161773D07945158
:1055E0007D8F9C45D58F9449D58FD449D58F944DC7
:1055F000D58FD44DD58FD451D58F9455D58FD98F84
:105600001CC1DC455CC19C411CC5DC415CC5828081
:105610001C4189C593E717001CC182804167791737
:10562000F98FDDBF9317350063DA0700B707024033
:1056300083A707407D8D3335A00082809317250016
:1056400063D70700B707024083A7074DE5B7B70741
:1056500002409C43C5B75841032805004C45370616
:105660000140930706403E979346F8FFB1C5832556
:105670000640F58D2320B640D043F18ED4C31443A9
:10568000B3E6060114C3184190479346F7FF758EA1
:1056900090C7D047F18ED4C7144541466399C600E0
:1056A0009447D98E94C7D447558FD8C78280B69770
:1056B0009443558F98C382801C43F58F1CC382800E
:1056C000B707014023AAA74082809C4513F7070132
:1056D00013F8F70001C7D8413368E80083D5050007
:1056E00013F7F50F39C318418146854E3D4F930F8F
:1056F000800293028004214E3396DE00B3F8C50089
:10570000631116039398260033131F011343F3FF0D
:105710003377E300B318180133E7E800639FF70518
:1057200050C98506E39AC6FD18C11307F00F6375CB
:10573000B70454412146854E3D4F930F800293029A
:105740008004414EB398CE0033F715016392E8020E
:105750001317260001173313EF001343F3FFB3763B
:10576000D3003317E800D98E639DF701232A150172
:105770000506E319C6FD54C18280E39457FA10C9A7
:105780004DB7E39757FE23281501DDB70CC982807A
:105790004CC9828013F7C50F93F73500B705014058
:1057A000BA9594458A073D473317F7001347F7FF2B
:1057B000758F98C598453315F500598D88C5828039
:1057C000397122DC26DA2A848354450068082EC603
:1057D00006DE4D24925737470F001307072433D7AF
:1057E000E702C204C18093F404FCC204C180B24544
:1057F00061651305056A131607014182D18C2312D6
:10580000940083560400C206C182F99AC206C1827E
:105810002310D40094416366D5068606B3D7D70219
:105820009146139707014183BA876373D700914765
:1058300005064206C2074182C1832310C402231E0B
:10584000F4008357040003D7450083D6A50093E7EF
:1058500017002310F40083570400558FF250C2073D
:10586000C18393F757BFD98F2310F40003D7850066
:1058700083D7C500D254D98F2314F4006254216118
:10588000828003D5650031667D16631EC5020D4614
:10589000B386C602B3D7D702C207C1839396470126
:1058A00099E293E71700A166D58F9306C0123307DC
:1058B000D7029306803E3347D7020507420741834C
:1058C0002310E402ADBF6546B386C602B3D7D70244
:1058D0009166C207C183D58FD1B78357050091C5A3
:1058E00093E717002310F5008280C207C183F99B5C
:1058F000C207C183C5BF8357050091C593E7071051
:105900002310F5008280C207C18393F7F7EFC20727
:10591000C183FDB78357050091C593E70720231086
:10592000F5008280C207C18393F7F7DFC207C18306
:10593000FDB78357050091C593E707402310F50095
:105940008280C207C18393F7F7BFC207C183FDB747
:105950002318B500828093F7E50F19C293E715006D
:10596000C207C1832318F500828083574501035580
:10597000850142055D8D6D8D220521810D8D1335CB
:1059800015008280411102C402C693D7C5012AC600
:105990003EC4A247A205A18199CBB247D1073EC61A
:1059A000B247884341016D8D3335A0008280B247F4
:1059B000C181E107EDB723AAA18282809387418349
:1059C00094430347050089E683472500920731A8E1
:1059D000944305466391C60483472500034615009A
:1059E00092076314D60093E707F8B7E600E093F751
:1059F000F70FBA962380F6408546935757003397A2
:105A0000E6005441ADC6938707048A07B7E600E075
:105A1000B69798C382808C4389466393D5028346A8
:105A20001500834725006365D6008A06B69779BFBF
:105A30009386E6038A06B69793F7F70F920765B742
:105A400090438D46631ED60083461500834725008C
:105A50006364D6008606D9BF9386C6078606E1BF73
:105A600094439147E39AF6F88347150085B79387E7
:105A7000070661BF371702405C439146B18B6385CF
:105A8000D700A1466386D706B7177A009387072009
:105A90001CC1371602405C42379700201307475756
:105AA0009183BD8BBA9783C607001C41B3D7D7003B
:105AB0005CC15442A1829D8ABA9683C60600B3D6C1
:105AC000D70014C55442AD829D8A3697034707001C
:105AD000B3D7E7005CC55842398393763700138704
